{
  "contractName": "Faucet",
  "abi": [
    {
      "inputs": [],
      "name": "numOfFunders",
      "outputs": [
        {
          "internalType": "uint256",
          "name": "",
          "type": "uint256"
        }
      ],
      "stateMutability": "view",
      "type": "function"
    },
    {
      "inputs": [],
      "name": "owner",
      "outputs": [
        {
          "internalType": "address",
          "name": "",
          "type": "address"
        }
      ],
      "stateMutability": "view",
      "type": "function"
    },
    {
      "inputs": [],
      "name": "test3",
      "outputs": [
        {
          "internalType": "uint256",
          "name": "",
          "type": "uint256"
        }
      ],
      "stateMutability": "pure",
      "type": "function"
    },
    {
      "inputs": [],
      "name": "testNum",
      "outputs": [
        {
          "internalType": "uint256",
          "name": "",
          "type": "uint256"
        }
      ],
      "stateMutability": "view",
      "type": "function"
    },
    {
      "stateMutability": "payable",
      "type": "receive"
    },
    {
      "inputs": [],
      "name": "addFunds",
      "outputs": [],
      "stateMutability": "payable",
      "type": "function"
    },
    {
      "inputs": [],
      "name": "justTesting",
      "outputs": [
        {
          "internalType": "uint256",
          "name": "",
          "type": "uint256"
        }
      ],
      "stateMutability": "pure",
      "type": "function"
    },
    {
      "inputs": [],
      "name": "getAllFunders",
      "outputs": [
        {
          "internalType": "address[]",
          "name": "",
          "type": "address[]"
        }
      ],
      "stateMutability": "view",
      "type": "function"
    },
    {
      "inputs": [],
      "name": "test1",
      "outputs": [],
      "stateMutability": "nonpayable",
      "type": "function"
    },
    {
      "inputs": [],
      "name": "test2",
      "outputs": [],
      "stateMutability": "nonpayable",
      "type": "function"
    },
    {
      "inputs": [
        {
          "internalType": "uint256",
          "name": "withdrawAmount",
          "type": "uint256"
        }
      ],
      "name": "withdraw",
      "outputs": [],
      "stateMutability": "nonpayable",
      "type": "function"
    },
    {
      "inputs": [
        {
          "internalType": "uint8",
          "name": "index",
          "type": "uint8"
        }
      ],
      "name": "getFunderAtIndex",
      "outputs": [
        {
          "internalType": "address",
          "name": "",
          "type": "address"
        }
      ],
      "stateMutability": "view",
      "type": "function"
    },
    {
      "inputs": [],
      "name": "emitLog",
      "outputs": [
        {
          "internalType": "bytes32",
          "name": "",
          "type": "bytes32"
        }
      ],
      "stateMutability": "pure",
      "type": "function"
    }
  ],
  "bytecode": "0x608060405234801561001057600080fd5b50336000806101000a81548173ffffffffffffffffffffffffffffffffffffffff021916908373ffffffffffffffffffffffffffffffffffffffff1602179055506103e8600181905550610b87806100696000396000f3fe6080604052600436106100ab5760003560e01c80638da5cb5b116100645780638da5cb5b146101a1578063a23f8a3d146101cc578063a26759cb146101f7578063ae28f1ed14610201578063af7f2c9b1461022c578063f42c13bf14610257576100b2565b80630a8e8e01146100b75780630a93cf33146100e25780632e1a7d4d1461011f57806366e41cb7146101485780636b59084d1461015f5780636fbbb55d14610176576100b2565b366100b257005b600080fd5b3480156100c357600080fd5b506100cc610282565b6040516100d99190610955565b60405180910390f35b3480156100ee57600080fd5b506101096004803603810190610104919061079c565b61028b565b60405161011691906108bd565b60405180910390f35b34801561012b57600080fd5b5061014660048036038101906101419190610773565b6102cb565b005b34801561015457600080fd5b5061015d610362565b005b34801561016b57600080fd5b506101746103f2565b005b34801561018257600080fd5b5061018b610482565b60405161019891906108d8565b60405180910390f35b3480156101ad57600080fd5b506101b66105c8565b6040516101c391906108bd565b60405180910390f35b3480156101d857600080fd5b506101e16105ec565b6040516101ee9190610955565b60405180910390f35b6101ff6105f5565b005b34801561020d57600080fd5b50610216610715565b6040516102239190610955565b60405180910390f35b34801561023857600080fd5b5061024161071b565b60405161024e9190610955565b60405180910390f35b34801561026357600080fd5b5061026c610721565b60405161027991906108fa565b60405180910390f35b60006064905090565b6000600460008360ff16815260200190815260200160002060009054906101000a900473ffffffffffffffffffffffffffffffffffffffff169050919050565b8067016345785d8a0000811115610317576040517f08c379a000000000000000000000000000000000000000000000000000000000815260040161030e90610935565b60405180910390fd5b3373ffffffffffffffffffffffffffffffffffffffff166108fc839081150290604051600060405180830381858888f1935050505015801561035d573d6000803e3d6000fd5b505050565b60008054906101000a900473ffffffffffffffffffffffffffffffffffffffff1673ffffffffffffffffffffffffffffffffffffffff163373ffffffffffffffffffffffffffffffffffffffff16146103f0576040517f08c379a00000000000000000000000000000000000000000000000000000000081526004016103e790610915565b60405180910390fd5b565b60008054906101000a900473ffffffffffffffffffffffffffffffffffffffff1673ffffffffffffffffffffffffffffffffffffffff163373ffffffffffffffffffffffffffffffffffffffff1614610480576040517f08c379a000000000000000000000000000000000000000000000000000000000815260040161047790610915565b60405180910390fd5b565b6060600060025467ffffffffffffffff8111156104c8577f4e487b7100000000000000000000000000000000000000000000000000000000600052604160045260246000fd5b6040519080825280602002602001820160405280156104f65781602001602082028036833780820191505090505b50905060005b6002548110156105c0576004600082815260200190815260200160002060009054906101000a900473ffffffffffffffffffffffffffffffffffffffff16828281518110610573577f4e487b7100000000000000000000000000000000000000000000000000000000600052603260045260246000fd5b602002602001019073ffffffffffffffffffffffffffffffffffffffff16908173ffffffffffffffffffffffffffffffffffffffff168152505080806105b890610a0d565b9150506104fc565b508091505090565b60008054906101000a900473ffffffffffffffffffffffffffffffffffffffff1681565b60006004905090565b6000339050600360008273ffffffffffffffffffffffffffffffffffffffff1673ffffffffffffffffffffffffffffffffffffffff16815260200190815260200160002060009054906101000a900460ff166107125760006002600081548092919061066090610a0d565b9190505590506001600360008473ffffffffffffffffffffffffffffffffffffffff1673ffffffffffffffffffffffffffffffffffffffff16815260200190815260200160002060006101000a81548160ff021916908315150217905550816004600083815260200190815260200160002060006101000a81548173ffffffffffffffffffffffffffffffffffffffff021916908373ffffffffffffffffffffffffffffffffffffffff160217905550505b50565b60015481565b60025481565b60007f48656c6c6f20576f726c64000000000000000000000000000000000000000000905090565b60008135905061075881610b23565b92915050565b60008135905061076d81610b3a565b92915050565b60006020828403121561078557600080fd5b600061079384828501610749565b91505092915050565b6000602082840312156107ae57600080fd5b60006107bc8482850161075e565b91505092915050565b60006107d183836107dd565b60208301905092915050565b6107e6816109ba565b82525050565b6107f5816109ba565b82525050565b600061080682610980565b6108108185610998565b935061081b83610970565b8060005b8381101561084c57815161083388826107c5565b975061083e8361098b565b92505060018101905061081f565b5085935050505092915050565b610862816109cc565b82525050565b60006108756021836109a9565b915061088082610a85565b604082019050919050565b60006108986023836109a9565b91506108a382610ad4565b604082019050919050565b6108b7816109f6565b82525050565b60006020820190506108d260008301846107ec565b92915050565b600060208201905081810360008301526108f281846107fb565b905092915050565b600060208201905061090f6000830184610859565b92915050565b6000602082019050818103600083015261092e81610868565b9050919050565b6000602082019050818103600083015261094e8161088b565b9050919050565b600060208201905061096a60008301846108ae565b92915050565b6000819050602082019050919050565b600081519050919050565b6000602082019050919050565b600082825260208201905092915050565b600082825260208201905092915050565b60006109c5826109d6565b9050919050565b6000819050919050565b600073ffffffffffffffffffffffffffffffffffffffff82169050919050565b6000819050919050565b600060ff82169050919050565b6000610a18826109f6565b91507fffffffffffffffffffffffffffffffffffffffffffffffffffffffffffffffff821415610a4b57610a4a610a56565b5b600182019050919050565b7f4e487b7100000000000000000000000000000000000000000000000000000000600052601160045260246000fd5b7f4f6e6c79206f776e65722063616e2063616c6c20746869732066756e6374696f60008201527f6e00000000000000000000000000000000000000000000000000000000000000602082015250565b7f63616e6e6f74207769746864726177206d6f7265207468616e20302e3120657460008201527f6865720000000000000000000000000000000000000000000000000000000000602082015250565b610b2c816109f6565b8114610b3757600080fd5b50565b610b4381610a00565b8114610b4e57600080fd5b5056fea2646970667358221220e89dad5f1581343f28d341eadefa3bcc8bbde523c0672d19ce6c30d55f033a1b64736f6c63430008040033",
  "immutableReferences": {},
  "source": "// SPDX-License-Identifier: MIT\r\npragma solidity >=0.4.22 <0.9.0;\r\n\r\nimport \"./Owned.sol\";\r\nimport \"./Logger.sol\";\r\nimport \"./IFaucet.sol\";\r\n\r\n\r\ncontract Faucet is Owned, Logger, IFaucet {\r\n\r\n\r\n    \r\n    uint public numOfFunders;\r\n    mapping(address => bool) private funders;\r\n    mapping(uint => address) private lutFunders;\r\n\r\n    \r\n\r\n    modifier limitWithdraw(uint withdrawAmount) {\r\n        require(withdrawAmount <= 100000000000000000, \"cannot withdraw more than 0.1 ether\");\r\n        _;\r\n    }\r\n\r\n   function addFunds() override payable external {\r\n    address funder = msg.sender;\r\n\r\n    if (!funders[funder]) {\r\n        uint index = numOfFunders++;\r\n        funders[funder] = true;\r\n        lutFunders[index] = funder;\r\n    }\r\n   }\r\n\r\n   function justTesting() external pure returns(uint) {\r\n    return 2+2;\r\n   }\r\n\r\n   function getAllFunders() external view returns (address[] memory) {\r\n    address[] memory _funders = new address[](numOfFunders);\r\n\r\n    for (uint i =0; i < numOfFunders; i++) {\r\n        _funders[i] = lutFunders[i];\r\n    }\r\n\r\n    return _funders;\r\n   }\r\n\r\n   function test1() external onlyOwner {\r\n    //something that only the owner can access\r\n   }\r\n    \r\n   function test2() external onlyOwner {\r\n    //something that only the owner can access\r\n   }\r\n\r\n\r\n   function withdraw(uint withdrawAmount) override external limitWithdraw(withdrawAmount) {\r\n     payable(msg.sender).transfer(withdrawAmount);\r\n   }\r\n\r\n   function getFunderAtIndex(uint8 index) external view returns(address) {\r\n    return lutFunders[index];\r\n   }\r\n\r\n   receive() external payable{}\r\n\r\n   function emitLog() public override pure returns(bytes32){\r\n    return \"Hello World\";\r\n   }\r\n\r\n   //pure is stricter than view - pure won't even read the storage state\r\n\r\n   // to talk to the node on the network you can make JSON-RPC http calls\r\n\r\n//    const instance = await Faucet.deployed()\r\n//    instance.addFunds()\r\n//    instance.addFunds({from: accounts[0], value: \"2000000000000000000\"})\r\n//    instance.addFunds({from: accounts[1], value: \"2000000000000000000\"})\r\n//    instance.withdraw(\"100000000000000000\", {from:accounts[1]})\r\n//    instance.getFunderAtIndex(0)\r\n//    instance.getAllFunders()\r\n\r\n\r\n}",
  "sourcePath": "C:\\Users\\kensc\\RPJ\\blockchain\\faucet\\contracts\\FaucetContract.sol",
  "compiler": {
    "name": "solc",
    "version": "0.8.4+commit.c7e474f2.Emscripten.clang"
  },
  "schemaVersion": "3.4.16",
  "updatedAt": "2023-09-23T09:44:16.302Z",
  "devdoc": {
    "kind": "dev",
    "methods": {},
    "version": 1
  },
  "userdoc": {
    "kind": "user",
    "methods": {},
    "version": 1
  }
}